:100000000C942A000C9434000C9434000C943400AA
:100010000C9434000C9434000C9434000C94340090
:100020000C9434000C9434000C9434000C949E0016
:100030000C9434000C9434000C9434000C94340070
:100040000C9434000C9434000C9434000C94340060
:100050000C94340011241FBECFE5D4E0DEBFCDBF29
:100060000E9436000C94AC000C940000CF93DF93F8
:1000700000D000D0CDB7DEB781E081BB80EF8ABB76
:100080009FE09BBB9FEF94BB85BB0E948500DD2456
:10009000DA940F2EF6E6EF2EF7E7FF2EF02D04E6AA
:1000A00010E00F2EF2E68F2EFBE69F2EF02D0F2E86
:1000B000F7E7AF2EB12CF02DC89912C0D5BA2FE7B3
:1000C0008FE492E1215080409040E1F700C00000B1
:1000D000FA82E9821C830B83CE0101960E948F0075
:1000E000C999EACF15BA2FE78FE492E121508040F9
:1000F0009040E1F700C000009A828982BC82AB8206
:10010000CE0101960E948F00D7CF10BC8DE489B933
:1001100088ED8AB908955D9BFECF8CB90895CF9381
:10012000DF93EC018881882331F021960E948B00B7
:1001300089918111FBCFDF91CF9108951F920F928A
:100140000FB60F9211248F938CB185BB8F910F90B6
:0C0150000FBE0F901F901895F894FFCF81
:00000001FF
