S01300004D435F50726F6772616D6D2E73726563DD
S11300000C942A000C9434000C9434000C943400A6
S11300100C9434000C9434000C9434000C9434008C
S11300200C9434000C9434000C9434000C9493001D
S11300300C9434000C9434000C9434000C9434006C
S11300400C9434000C9434000C9434000C9434005C
S11300500C94340011241FBECFE5D4E0DEBFCDBF25
S11300600E9436000C94A1000C940000CF93DF93FF
S113007000D000D0CDB7DEB782E081BB80EF8ABB71
S11300808FE082BB0F2EF2E6AF2EFBE6BF2EF02DE3
S11300900F2EF7E7CF2ED12CF02D0F2EF6E6EF2EF4
S11300A0F7E7FF2EF02D04E610E0C89B12C02FE7FF
S11300B08FE492E1215080409040E1F700C00000BD
S11300C0FA82E9821C830B83CE0101960E9481008F
S11300D0ECCFC99BEACF2FE78FE492E12150804017
S11300E09040E1F700C00000BA82A982DC82CB8292
S11300F0CE0101960E948100D8CF5D9BFECF8CB9C2
S11301000895CF93DF93EC018881882349F02196E9
S11301100E947D008DE00E947D0089918111F8CFBD
S1130120DF91CF9108951F920F920FB60F92112471
S11301308F938CB185BB8F910F900FBE0F901F9042
S10901401895F894FFCFAE
S9030000FC
